:020000040800F2
:10000000380400209D010008A5010008A701000890
:10001000A9010008AB010008AD01000800000000C4
:10002000000000000000000000000000AF01000818
:10003000B101000800000000B3010008B50100088C
:10004000B7010008B7010008B7010008B7010008B0
:10005000B7010008B7010008B7010008B7010008A0
:10006000B7010008B7010008B7010008B701000890
:10007000B7010008B7010008B7010008B701000880
:10008000B7010008B7010008B7010008B701000870
:10009000B7010008B7010008B7010008B701000860
:1000A000B7010008B7010008B7010008B701000850
:1000B000B7010008B7010008B7010008B701000840
:1000C000B7010008B7010008B7010008B701000830
:1000D000B7010008B7010008B7010008B701000820
:1000E000B7010008B7010008B7010008B701000810
:1000F000B7010008B7010008B7010008B701000800
:10010000B7010008B7010008B7010008B7010008EF
:10011000B7010008B7010008B7010008B7010008DF
:10012000B7010008B7010008B7010008B7010008CF
:10013000B7010008B7010008B7010008B7010008BF
:10014000B7010008B7010008B7010008B7010008AF
:10015000B7010008B7010008B7010008B70100089F
:10016000B7010008B7010008B7010008B70100088F
:10017000B7010008B7010008B7010008000000003F
:10018000B7010008B7010008DFF80CD000F018F83C
:100190000048004745110008380400200648804701
:1001A00006480047FEE7FEE7FEE7FEE7FEE7FEE75C
:1001B000FEE7FEE7FEE7FEE76D0F00088901000895
:1001C000064C074D06E0E06840F0010394E80700A4
:1001D00098471034AC42F6D3FFF7DAFF441E00080C
:1001E000641E000800B5422001F020FEC82000F087
:1001F000A0FF02490020087200BD0000000000209E
:1002000010B553222021012000F0D2F91E4C5322B8
:100210002021E060022000F0CBF920615322202150
:10022000032000F0C5F9606118A000F049FC5322DA
:100230001021012000F0BCF9E060532210210220BF
:1002400000F0B6F9206153221021032000F0B0F92C
:10025000606113A000F034FC52220221012000F062
:10026000A7F90221E0605222084600F0A1F92061BE
:1002700052220221032000F09BF9606108A000F0E7
:100280001FFC002010BD0000000000205447545AFD
:100290005220534554204849474820200000000080
:1002A0004153474E435052205345542048494748F4
:1002B00000000000624A00B5106840F001001060C4
:1002C000322001F0A1FD5F4B18684FF6F0718843B2
:1002D0001860322001F098FD186844F2A0510843DC
:1002E0001860322001F090FD986845F250510843A3
:1002F0009860322001F088FD106840F00400106022
:10030000322001F081FD5048016821F470510160F4
:10031000322001F079FD106840F0080010603220B2
:1003200001F072FD494B186800201860322001F07E
:100330006BFD186860F02A401860322001F064FDFF
:10034000106840F010001060322001F05DFD404860
:1003500001686FF30F010160322001F055FD106854
:1003600040F020001060322001F04EFD394B18683B
:10037000C0F30B001860322001F046FD186840F40D
:10038000A0401860322001F03FFD106840F080006E
:100390001060322001F038FD2F4B186820F44040E7
:1003A0001860322001F030FD186820F440301860E9
:1003B000322001F029FD186840F480401860322096
:1003C00001F022FD186840F480301860322001F0FE
:1003D0001BFD2148001D016841F08001016001689A
:1003E00041F4807101601C480C30016821F44041E7
:1003F0000160016821F44031016017481430016840
:1004000041F480710160016841F08001016012488F
:100410000830016841F4A0310160322001F0F4FCA1
:10042000106840F480701060322001F0EDFC0B4940
:100430006FF42040086032205DF804EB01F0E4BC6A
:10044000303802400000024000080240000C024028
:100450000010024000140240001C02400020024034
:10046000444A00B5106840F001001060322001F0ED
:10047000CBFC414B186820F47F401860322001F01B
:10048000C3FC186840F480501860322001F0BCFCB6
:10049000986840F4AA409860322001F0B5FC1068DA
:1004A00040F002001060322001F0AEFC334B1868BF
:1004B00080B21860322001F0A7FC18683049084368
:1004C0001860322001F0A0FC106840F004001060B9
:1004D000322001F099FC2C492A480860322001F0B2
:1004E00093FC106840F008001060322001F08CFC92
:1004F000274926480860322001F086FC106840F049
:1005000010001060322001F07FFC23492148086070
:10051000322001F079FC106840F020001060322099
:1005200001F072FC1E491D480860322001F06CFC8D
:10053000106840F040001060322001F065FC1A495C
:1005400018480860322001F05FFC1848016841F04B
:1005500080010160016841F4807101601348083036
:10056000016821F440410160016821F440310160DB
:1005700000BD00003038024000000240000402408C
:1005800000000CC330C3FFFF0008024055FFFF55B9
:10059000000C0240300C300C00100240FF0F0CC366
:1005A00000140240FFFFC33000180240041C024048
:1005B0002DE9F84F554B16460F464FF4FA750128B2
:1005C0001CD0534C022846D0032870D0582151A08B
:1005D00000F0ACF852465946009801F005FC04467C
:1005E00032464146484601F0FFFB0146200600EB3B
:1005F000014000EB04200844BDE8F88F4A4C6069D4
:1006000020F010006061284601F0FEFB186840F001
:1006100040001860304600F051FC0090304600F079
:100620004DFC8346304600F049FC8246384600F0D7
:1006300045FC8146384600F041FC8046384600F0D3
:100640003DFC0646186820F040001860606940F0E4
:100650001000606156E0206820F08000206028468D
:1006600001F0D2FB186840F040001860304600F0FE
:1006700025FC0090304600F021FC8346304600F017
:100680001DFC8246384600F019FC8146384600F0D1
:1006900015FC8046384600F011FC0646186820F02C
:1006A00040001860206840F080002AE0FFE72068E2
:1006B00020F040002060284601F0A6FB186840F0BA
:1006C00040001860304600F0F9FB0090304600F022
:1006D000F5FB8346304600F0F1FB8246384600F0D9
:1006E000EDFB8146384600F0E9FB8046384600F0D5
:1006F000E5FB0646186820F040001860206840F0CE
:1007000040002060284601F07FFB63E70030014095
:1007100014140240434F4D4D414E442020202046AA
:1007200041494C20000000000000024000B5017467
:1007300000F0C6F9002000BD274800B5016841F06F
:1007400080010160322001F05FFB244A106820F430
:1007500040401060322001F057FB106820F4403018
:100760001060322001F050FB106840F480401060AF
:10077000322001F049FB106840F4803010603220D4
:1007800001F042FB1548001D016841F08001016045
:10079000016841F48071016010480C30016821F457
:1007A00040410160016821F4403101600B48143080
:1007B000016841F480710160016841F080010160CD
:1007C00006480830016841F4A031016032205DF82C
:1007D00004EB01F019BB000030380240001C02405D
:1007E0000E4A00B5106840F480701060106840F048
:1007F00080001060012000F09CFC106820F48070E4
:100800001060012000F095FC106820F0800010605E
:1008100001205DF804EB00F08CBC0000141C0240C9
:100820000E4A00B5106820F080001060106820F4B7
:1008300080701060012000F07CFC106840F08000A7
:100840001060012000F075FC106840F480701060AA
:1008500001205DF804EB00F06CBC0000141C0240A9
:1008600010B5174A044600232006106802D420F46D
:10087000807001E040F4807010606006040E106823
:1008800040F080001060012000F053FC106820F060
:10089000800010605B1CDBB2082BE5D3012000F068
:1008A00048FC012000F045FC106840F0800010601A
:1008B000012000F03EFC106820F08000106010BDA8
:1008C000141C0240144800B5016841F001010160A8
:1008D000322001F099FA114A106820F0707010600F
:1008E000322001F091FA106910F4C0500FD0106955
:1008F000C0F3C12002280BD01069C0F3C120012829
:1009000008D01069C0F3C120032800D0042000BD26
:10091000012000BD022000BD30380240000002402E
:1009200000B5FFF75DFF4E20FFF79AFF0820FFF7A5
:1009300097FF5DF804EBFFF773BF00B5C82000F028
:10094000F8FBFF2000F029F80F2000F0F2FB382020
:1009500000F023F8052000F0ECFB322000F01DF839
:10096000642001F051FA282000F017F8042001F06B
:100970004BFA0C2000F011F8042001F045FA062093
:1009800000F00BF8042001F03FFA802000F005F899
:1009900004205DF804EB01F037BAF0B500F0F00583
:1009A0000007040E45F0040744F00406FFF718FFA3
:1009B0004E20FFF755FF3846FFF752FF2846FFF756
:1009C0004FFF3046FFF74CFF2046FFF749FFBDE8D9
:1009D000F040FFF725BFF0B500F0F0020007010E70
:1009E00042F0050442F0010641F0050541F001071F
:1009F000FFF7F6FE4E20FFF733FF2046FFF730FFEC
:100A00003046FFF72DFF2846FFF72AFF3846FFF74D
:100A100027FFBDE8F040FFF703BF000070B5264D8B
:100A20000646286840F080002860322001F0ECF98A
:100A3000224C206820F440402060322001F0E4F98C
:100A4000206840F480402060322001F0DDF9206809
:100A500020F440302060322001F0D6F9206840F4C4
:100A600080302060322001F0CFF98020FFF795FF21
:100A7000042001F0C9F902E0761CFFF7ACFF3078E2
:100A80000028F9D1FFF74CFF206820F44040206097
:100A9000322001F0B9F9206820F440302060322083
:100AA00001F0B2F9286820F080002860BDE87040AD
:100AB000322001F0A9B9000030380240001C024089
:100AC00070B5264D0646286840F080002860322028
:100AD00001F09AF9224C206820F440402060322036
:100AE00001F092F9206840F480402060322001F04B
:100AF0008BF9206820F440302060322001F084F926
:100B0000206840F480302060322001F07DF9C02060
:100B1000FFF743FF042001F077F902E0761CFFF7AE
:100B20005AFF30780028F9D1FFF7FAFE206820F448
:100B300040402060322001F067F9206820F4403006
:100B40002060322001F060F9286820F080002860E1
:100B5000BDE87040322001F057B900003038024043
:100B6000001C024070B52D4C002604F12805666279
:100B70002BA0FFF753FF26624C2001F057F9C82045
:100B800000F0D7FA01F046F92072216A6854C820B3
:100B900000F0CFFA206A401C20621028ECD31F48D6
:100BA0002830FFF73BFF68794C2804D0606A401C6E
:100BB00060620428DCD31FA0FFF782FF606A03286D
:100BC00016D029D24FF001014FF053020846FFF72B
:100BD000EFFCE060532201210220FFF7E9FC2061D5
:100BE000532201210320FFF7E3FC6061002070BD68
:100BF000012152220846FFF7DBFCE060522201216E
:100C00000220FFF7D5FC2061522201210320FFF7CB
:100C1000CFFC6061032070BDFF2070BD000000208C
:100C200057616974204C494E4B3F3F3F3F2E2E2E5B
:100C3000000000004C494E4B2E2E2E646F756274DE
:100C40002E2E2E2E0000000010B5194C5522AA2180
:100C50000120FFF7ADFCE0605522AA210220FFF73A
:100C6000A7FC20615522AA210320FFF7A1FC6061A7
:100C7000C2B2217C207B01F0B7F86070A08AC0F37B
:100C80000722208AC0F30721A089C0F3072001F0C2
:100C9000ABF820706178084000F08000E06105A0AA
:100CA000FFF70EFFE0698028D0D1002010BD0000C2
:100CB0000000002070726573732042492D4F4B2055
:100CC000202E2E2E000000002DE9F04300F0D4FF6E
:100CD0004F4BC4B2C0F30726186840F040001860BC
:100CE000204600F0EBF88146204600F0E7F8804609
:100CF000204600F0E3F80546304600F0DFF80746EE
:100D0000304600F0DBF80446304600F0D7F80246E3
:100D1000186820F0400018602146384601F064F859
:100D200004462A464146484601F05EF805463948E1
:100D3000532D02D0522D32D045E0012C0FD0022C81
:100D400011D0042C13D0082C15D0102C17D0202C27
:100D500019D0402C1BD0802C1DD03F2130E00168E1
:100D600021F0010151E0016821F002014DE001682C
:100D700021F0040149E0016821F0080145E0016823
:100D800021F4805141E0016821F400513DE0016807
:100D900021F4804139E0016821F4004135E0012C63
:100DA00014D0022C16D0042C18D0082C1AD0102CD9
:100DB0001CD0202C1ED0402C20D0802C22D02121D1
:100DC00015A0FFF7B3FC2846BDE8F083016841F0A9
:100DD00001011AE0016841F0020116E0016841F0EA
:100DE000040112E0016841F008010EE0016841F4DD
:100DF00080510AE0016841F4005106E0016841F4C5
:100E0000804102E0016841F400410160DBE700003D
:100E100000300140140C0240524553504F4E4420C4
:100E20002020204641494C20000000002048016855
:100E300041F0010101601E481430016841F4805105
:100E400001601C48016821F47C410160016841F4A3
:100E500028410160816841F47C418160016A41F46C
:100E6000A0010162016A41F0A0610162016A41F0E2
:100E7000A04101621048016841F038010160016839
:100E800021F400610160016801600168016001688E
:100E900041F400710160016841F4807101600168F2
:100EA00041F004010160016841F0400101607047B8
:100EB00030380240000002400030014006498A6894
:100EC0009207FCD5C8608868C007FCD08868000617
:100ED000FCD4C868C0B270470030014020480168A7
:100EE00041F0010101601E481430016841F4805155
:100EF00001601C48016821F47C410160016841F4F3
:100F000028410160816841F47C418160016A41F4BB
:100F1000A0010162016A41F0A0610162016A41F031
:100F2000A04101621048016841F038010160016888
:100F300021F40061016001680160016801600168DD
:100F400041F400710160016821F480710160016861
:100F500021F004010160016841F040010160704727
:100F6000303802400000024000300140164A10B5FF
:100F7000106840F001001060322000F045FF124B75
:100F8000002408331C60322000F03EFF0E480C3075
:100F90000460322000F038FF0C48016841F4C06161
:100FA0000160322000F030FF186840F090001860B7
:100FB00010688007FCD5106840F081001060BDE823
:100FC0001040322000F020BF00380240003C0240B8
:100FD0004B4800B5016841F001010160322000F08A
:100FE00013FF47481030016841F40031016032209E
:100FF00000F00AFF42481430016841F4804101606A
:10100000322000F001FF3F4A106820F030001060ED
:10101000322000F0F9FE106820F0C000106032208D
:1010200000F0F2FE38489060322000F0EDFE3748C4
:10103000D060322000F0E8FE106840F02000106020
:10104000322000F0E1FE106840F080001060322095
:1010500000F0DAFE106A40F4E0601062322000F026
:10106000D3FE106A40F4E0401062322000F0CCFE63
:10107000274A106820F480501060322000F0C4FE2F
:10108000106820F4C0601060322000F0BDFE2048DF
:10109000001D016821F440510160322000F0B4FECF
:1010A0001B480830016821F440710160322000F0D3
:1010B000ABFE106840F008001060322000F0A4FE83
:1010C000106840F004001060322000F09DFE104BCC
:1010D0001B1F186840F4D0601860322000F094FEA6
:1010E000186840F011001860322000F08DFE106882
:1010F00040F40050106032205DF804EB00F084BE34
:101100003038024000000240F000000C5000006443
:101110000C44004002E008C8121F08C1002AFAD19E
:1011200070477047002001E001C1121F002AFBD167
:1011300070474FF47A714843002100E0491C814216
:10114000FCD37047FFF712FFFFF7BCFBFD4CA0700C
:10115000FFF7F2FAA078FC4DFC4E40B1FC4C0128A0
:101160007ED0FC4E02287CD003287BD0FEE7FFF720
:10117000A1F8706940F010007061F648001D016828
:1011800041F080010160016841F040010160FFF71A
:101190004DFEFFF71DFFFFF7D0FBEFA0FFF73EFC72
:1011A000F2A0FFF78DFC4FF4FA663046FFF7C1FF5F
:1011B000286820F040002860ECA0FFF72FFCF0A08A
:1011C000FFF77EFC3046FFF7B4FFF2A0FFF778FC94
:1011D000FFF73AFDE070E07840B1F3A0FFF770FC54
:1011E000FFF70EF8E070E07810B104E0F2A0F5E748
:1011F000F5A0FFF713FCFFF7B5FCE070E0780028DE
:101200004DD0E07803284CD0F4A000BFFFF758FC85
:10121000CC4D4FF47A7728355522AA210120FFF7CB
:10122000C7F9E0605522AA210220FFF7C1F9206129
:101230005522AA210320FFF7BBF96061C2B2217CCD
:10124000207B00F0D1FD6070A08AC0F30722208AC5
:10125000C0F30721A089C0F3072000F0C5FD02E01C
:10126000FEE3FEE3FEE3207000F0D4FD287100F001
:10127000D1FDA87100F0CEFDC2B22A72A9792879F9
:1012800000F0B2FDA071207800F08000207160783D
:1012900000F0810060712079802804D00CE0D4A097
:1012A000B4E7D8A0B2E7A0794C2805D1DAA0FFF7BF
:1012B000B5FBDEA0FFF704FC207800F0C100207130
:1012C0002079C12809D1A0794C2806D1FEF78AFFE0
:1012D000DBA0FFF7A3FBFF20E071207800F0D30034
:1012E00020712079D3280ED1A0794C280BD154201D
:1012F00000F09CFD542000F099FD542000F096FD74
:10130000D4A0FFF78BFB207800F0D3002071207968
:10131000D3287CD1A079432879D1532220210120E0
:10132000FFF746F9E060532220210220FFF740F941
:101330002061532220210320FFF73AF96061C82081
:10134000FFF7F7FE532208210120FFF731F9E06093
:10135000532208210220FFF72BF920615322082194
:101360000320FFF725F960613046FFF7E2FE5222C5
:1013700008210120FFF71CF9E06052220821022019
:10138000FFF716F92061522208210320FFF710F918
:10139000606140F6B830FFF7CCFE522220210120D8
:1013A000FFF706F9E060522220210220FFF700F942
:1013B0002061522220210320FFF7FAF860613846AD
:1013C000FFF7B7FE5522AA210120FFF7F1F8E060F0
:1013D0005522AA210220FFF7EBF820615522AA210D
:1013E0000320FFF7E5F86061C2B2217C207B00F0AA
:1013F000FBFC6070A08AC0F30722208AC0F307219B
:10140000A089C0F3072000F0EFFC207000E008E0A6
:1014100000F00200207120790028D3D192A0FFF7BC
:10142000FDFA207800F010002071207970B9A079C1
:1014300043280BD14F2000F0F9FC4F2000F0F6FCC0
:101440004F2000F0F3FC8DA0FFF7E8FA207800F0C1
:10145000100020712079102820D1A07943281DD1B7
:101460006F2000F0E3FC6F2000F0E0FC6F2000F044
:10147000DDFC87A0FFF7D2FA522208210120FFF7F6
:1014800097F8E060522208210220FFF791F82061CE
:10149000522208210320FFF78BF86061A0794128D0
:1014A00017D1532220210120FFF782F8E060532258
:1014B00020210220FFF77CF8206153222021032005
:1014C000FFF776F8606177A0FFF7A8FA7AA0FFF738
:1014D000F7FA207800F0950020712079952830D116
:1014E000632000F0A3FC632000F0A0FC632000F068
:1014F0009DFC76A0FFF792FA00F08CFC287100F0BA
:1015000089FCA87100F086FCC2B22A72A9792879F8
:1015100000F06AFCA071A0796228EDD1532240212D
:101520000120FFF745F8E060532240210220FFF739
:101530003FF82061532240210320FFF739F8606112
:10154000CEE017E100000020003001400000024022
:10155000140C024010140240414B4720456C656357
:101560007472696E6963732E00000000496E6469CD
:10157000616E205261696C776179732E0000000002
:1015800055465342492D4F7065726174696E672EDE
:101590000000000050524553532042492D4F4E2E1B
:1015A0002E2E2E2E00000000423234706F776572AE
:1015B0006C696E654F464600424C4F434B20494E86
:1015C00053545255204F4E004249204E4F524D63C6
:1015D0006F6E646974696F6E000000004C494E4B79
:1015E0002E2E2E646F75627466756C6C00000000A0
:1015F0004C494E4B2E2E2E2E2E2E2E2E2E204F4B65
:10160000000000004C494E4B2E2E2E2E2E2E2E2E3C
:101610004641494C000000005447543A2049444C8C
:1016200045204D4F44452E2E000000005443463ABD
:101630002049444C45204D4F44452E2E00000000CB
:101640005447543A4F6E6C792062656C6C2E2E2E86
:10165000000000005447543A5447542B42454C4C28
:101660002E2E2E2E000000005447543A544754208A
:101670004C494E4566726565000000005447543A77
:10168000545241494E6F6E4C494E452E00000000A9
:101690005447543A547261696E20696E20736563D1
:1016A00000000000417474656E74696F6E20534DC4
:1016B0002E2E2E2E00000000544754204E6F726DC7
:1016C000616C20636F6E646E000000005447543AF2
:1016D00043414E43454C2D434F2D4F5000000000D9
:1016E00000F098FB287100F095FBA87100F092FBC8
:1016F000C2B22A72A979287900F076FBA071A0798C
:101700004C287FF41DAF522240210120FEF750FFEC
:10171000E060522240210220FEF74AFF206152225F
:1017200040210320FEF744FFC4F8140000F072FBD0
:10173000287100F06FFBA87100F06CFBC2B22A7236
:10174000A979287900F050FBA071A0794628EDD145
:10175000532220210120FEF72BFFE060532220219D
:101760000220FEF725FF2061532220210320FEF7EF
:101770001FFF6061A079422814D15322402101202B
:10178000FEF716FFE060532240210220FEF710FF13
:101790002061532240210320FEF70AFF6061FEA072
:1017A000FFF78EF9A079422811D052224021012062
:1017B000FEF7FEFEE060522240210220FEF7F8FE16
:1017C0002061522240210320FEF7F2FE6061207862
:1017D00000F0A10020712079A1285AD1A0795428C5
:1017E00057D1532210210120FEF7E2FEE060532280
:1017F00010210220FEF7DCFE20615322102103207D
:10180000FEF7D6FE6061C2B2217C207B00F0ECFACC
:10181000A0614FF4FA70FFF78CFC532202210120E3
:10182000FEF7C6FE0221E06053220846FEF7C0FE26
:101830002061532202210320FEF7BAFE6061C2B28A
:10184000217C207B00F0D0FAA0613046FFF771FCCC
:10185000522202210120FEF7ABFE0221E06052225B
:101860000846FEF7A5FE2061522202210320FEF762
:101870009FFE60613846FFF75CFCCCA0FFF720F9C3
:10188000432000F0D3FA432000F0D0FA432000F0C8
:10189000CDFAA0794F2814D1522210210120FEF751
:1018A00087FEE060522210210220FEF781FE2061B7
:1018B000522210210320FEF77BFE6061C0A0FFF7DB
:1018C000FFF8A0796F2814D1532210210120FEF7D0
:1018D0006FFEE060532210210220FEF769FE2061B6
:1018E000532210210320FEF763FE6061B9A0FFF7C9
:1018F000E7F8207800F020002071207998BB412083
:1019000000F094FA412000F091FA412000F08EFAA4
:10191000532202210120FEF74BFE0221E0605322F8
:101920000846FEF745FE2061532202210320FEF700
:101930003FFE60613846FFF7FCFB52220221012086
:10194000FEF736FE0221E06052220846FEF730FE26
:101950002061522202210320FEF72AFE6061AFF2CD
:101960003430FFF7ADF8A07963287CD153220421ED
:101970000120FEF71DFEE060532204210220FEF745
:1019800017FE2061532204210320FEF711FE60613F
:101990003046FFF7CEFB532210210120FEF708FE50
:1019A000E060532210210220FEF702FE2061532244
:1019B00010210320FEF7FCFD60618BA0FFF780F88B
:1019C0005522AA210120FEF7F3FDE0605522AA214D
:1019D0000220FEF7EDFD20615522AA210320FEF72B
:1019E000E7FD6061C2B2217C207B00F0FDF96070F0
:1019F000A08AC0F30722208AC0F30721A089C0F380
:101A0000072000F0F1F9207000F0400020712079EB
:101A10004028D5D1422000F009FA422000F006FA11
:101A2000422000F003FA5522AA210120FEF7C0FD52
:101A3000E0605522AA210220FEF7BAFD206155225E
:101A4000AA210320FEF7B4FD6061C2B2217C207B95
:101A500000F0CAF96070A08AC0F30722208A03E070
:101A60004AE078E0D9E016E0C0F30721A089C0F38E
:101A7000072000F0B9F9207000F0400020712079B3
:101A80000028D0D1422000F0D1F9422000F0CEF958
:101A9000422000F0CBF9A079462811D15322202111
:101AA0000120FEF785FDE060532220210220FEF791
:101AB0007FFD2061532220210320FEF779FD606124
:101AC000207800F008002071207900287FF4A4AB72
:101AD000522204210120FEF76BFDE0605222042116
:101AE0000220FEF765FD2061522204210320FEF74B
:101AF0005FFD6061FFF790BBFEF7B2FCFFF7EEF908
:101B0000286820F040002860206840F00100206034
:101B1000206840F002002060206840F0040020604F
:101B2000206840F008002060206840F48050206069
:101B3000206840F400502060206840F4804020601D
:101B4000206840F4004020603069C006FCD4FFF7F4
:101B5000BBF83069F8E7FEF783FCFFF7BFF92868A8
:101B600020F040002860206840F0010020602068DC
:101B700040F002002060206840F0040020602068EF
:101B800040F008002060206840F480502060206809
:101B900040F40050206031E05443463A42656C6C9A
:101BA0002072696E67696E67000000005443463A10
:101BB00054434652206C6174636865640000000001
:101BC0005443463A4C494E456F636375706965648A
:101BD000000000005443463A4153474E435052647C
:101BE000726F702E000000005443463A43414E434A
:101BF0004F7265717565737400000000206840F4D1
:101C000080402060206840F400402060306800067A
:101C1000FCD4FFF759F83068F8E7FEF721FCFFF72E
:101C20005DF9286820F040002860206840F001003D
:101C30002060206840F002002060206840F004002E
:101C40002060206840F008002060206840F4805048
:101C50002060206840F400502060206840F48040FC
:101C60002060206840F40040206030684006FCD4CA
:101C7000FFF72AF83068F8E7F0B5564C00231A460B
:101C80002569194618466D0600D5012325692D06DC
:101C900001D543F0020325692D0701D543F0040364
:101CA0002569ED0601D543F008032569ED0701D04C
:101CB00043F010032569AD0701D543F02003464EDC
:101CC0003568AD0401D543F0400335686D0401D596
:101CD00043F0800335686D0500D5012235682D0578
:101CE00001D542F002023D4D2F683F0701D542F079
:101CF00004023668F60501D542F008022E68F607A0
:101D000001D042F010022E68B60701D542F0200241
:101D10002E68760601D542F040022D68AD0601D549
:101D200042F0800225696D0400D5012125692D044A
:101D300001D541F0020125692D0501D541F00401CD
:101D40002569ED0401D541F008012569ED0501D5AE
:101D500041F010012469A40501D541F02001204D76
:101D60002C68640501D541F040012C68A40501D51B
:101D700041F080012C68A40400D501202C68E40403
:101D800001D540F00200174C2668F60501D540F059
:101D900004002D682D0401D540F0080025682D05AC
:101DA00001D540F0100025686D0501D540F02000F8
:101DB00025686D0401D540F040002468A40401D5D5
:101DC00040F0800043EA012141EA024141EA00601B
:101DD000F0BD000000100240101402401008024044
:101DE0001018024010040240884205D0914203D0EE
:101DF000824201D0FF20704700EA010311400B43EB
:101E0000024043EA02007047002100E0491C814281
:101E1000FCD37047044801688906FCD50248001DC0
:101E20000068C0F3080070470044004004490A6895
:101E30001206FCD50249C0F30800091D086070476E
:101E400000440040641E000800000020380000002C
:101E5000141100089C1E0008380000200004000037
:101E60002411000800000000000000000000000035
:101E70000000000000000000000000000000000062
:101E800000000000000000000000000058585858F2
:0C1E900058585858585858585858585826
:040000050800018965
:00000001FF
